S015000050726F796563746F4D6963726F2E73726563C0
S11300000C94B8010C94D5010C94D5010C94D50131
S11300100C94D5010C94D5010C94D5010C94D50104
S11300200C94D5010C94D5010C94D5010C94B10514
S11300300C94D5010C94D5010C94D5010C94D501E4
S11300400C94D5010C94D5010C94D5010C94D501D4
S11300500C94D5010C94D5010C94D5010C94D501C4
S11300600C94D5010C94D5010000000000000000A0
S113007000005F000000000000000700070000000F
S113008000147F147F14000000242A7F2A12000029
S11300900023130864620000003649552250000012
S11300A00000050300000000001C224100000000C5
S11300B00041221C0000000000082A1C2A0800003D
S11300C00008083E0808000000A0600000000000CE
S11300D00008080808080000006060000000000034
S11300E00020100804020000003E5149453E000073
S11300F00000427F40000000006251494946000070
S11301000022414949360000001814127F100000F3
S11301100027454545390000003C4A494930000064
S11301200001710905030000003649494936000001
S113013000064949291E0000000036360000000070
S11301400000AC6C00000000000814224100000014
S113015000141414141400000041221408000000B8
S1130160000201510906000000324979413E0000B5
S1130170007E0909097E0000007F494949360000D4
S1130180003E414141220000007F4141221C000009
S1130190007F494949410000007F09090901000025
S11301A0003E414151720000007F0808087F0000B2
S11301B000417F4100000000002040413F01000059
S11301C0007F081422410000007F404040400000AE
S11301D0007F020C027F0000007F0408107F0000F3
S11301E0003E4141413E0000007F0909090600002C
S11301F0003E4151215E0000007F0919294600009C
S113020000264949493200000001017F0101000034
S1130210003F4040403F0000001F2040201F0000DE
S1130220003F4038403F000000631408146300009E
S113023000030478040300000061514945430000B1
S1130240007F41410000000000020408102000006B
S11302500041417F0000000000040201020400008C
S11302600080808080800000000102040000000003
S11302700020545454780000007F4844443800005F
S1130280003844442800000000384444487F0000FB
S1130290003854545418000000087E09020000007D
S11302A00018A4A4A47C0000007F080404780000C3
S11302B000007D00000000000080847D000000003C
S11302C0007F10284400000000417F40000000002F
S11302D0007C041804780000007C08047C00000002
S11302E0003844443800000000FC242418000000B6
S11302F000182424FC00000000007C080400000016
S1130300004854542400000000047F44000000000E
S1130310003C40407C000000001C2040201C0000E9
S1130320003C4030403C00000044281028440000B9
S1130330001CA0A07C000000004464544C44000055
S1130340000836410000000000007F0000000000AB
S11303500041360800000000000201010201000013
S1130360000205050200000000FFFFFFFFFF000080
S113037011241FBECFEFD8E0DEBFCDBF11E0A0E057
S1130380B1E0E2E0F6E102C005900D92A034B107BD
S1130390D9F723E0A0E4B1E001C01D92A134B20773
S11303A0E1F70E9429060C94FF0A0C9400008CE2E9
S11303B084B980E58CBD81E08DBD08958EBD0DB4FA
S11303C007FEFDCF8EB508958AB180628AB98BB1DC
S11303D08F7D8BB908958AB180628AB98BB18062AE
S11303E08BB908958AB180648AB98BB18F7B8BB93C
S11303F008958AB180648AB98BB180648BB90895F9
S11304008AB180618AB98BB180618BB908958AB150
S113041080618AB98BB18F7E8BB90895CF93C82F31
S11304200E94F2010E94E4018C2F0E94DE010E94CE
S1130430EB01CF910895CF93C82F0E94F9010E9438
S1130440E4018C2F0E94DE010E94EB01CF910895FC
S1130450CF93DF93C82FD92F0E94F9010E94E401A2
S11304608D2F0E94DE018C2F0E94DE010E94EB0181
S1130470DF91CF9108950F931F93CF93DF938C0156
S1130480EB018AE20E940E02C8010E942802CE01FA
S11304900E942802DF91CF911F910F9108950F932D
S11304A01F93CF93DF938C01EB018BE20E940E022A
S11304B0C8010E942802CE010E942802DF91CF9138
S11304C01F910F9108958093260381110DC080EF31
S11304D090E0909345018093440180E491E09093EF
S11304E0400380933F030895813061F480E491E0F8
S11304F0909345018093440180EF90E090934003F2
S113050080933F030895CF92DF92EF92FF920F936F
S11305101F93CF93DF936C01EB018A0179018091E2
S11305202603811118C0B601640F751FC6010E940D
S11305303B02BE01CE010E944F028CE20E940E02D9
S1130540C0E0D0E004C0C7010E9428022196C01771
S1130550D107C8F31DC08130D9F4CB010E943B02FE
S113056080914401909145018C199D09BC01801B27
S1130570910B0E944F028CE20E940E02C0E0D0E078
S113058004C0C7010E9428022196C017D107C8F3EE
S1130590DF91CF911F910F91FF90EF90DF90CF905B
S11305A008958F929F92AF92BF92CF92DF92EF9273
S11305B0FF920F931F93CF93DF934C015B016A016A
S11305C07901C0E0D0E009C0BE016A0D7B1D98012D
S11305D0A601C4010E9483022196CE15DF05A0F373
S11305E0DF91CF911F910F91FF90EF90DF90CF900B
S11305F0BF90AF909F908F9008955F926F927F927B
S11306008F929F92AF92BF92CF92DF92EF92FF921E
S11306100F931F93CF93DF93582E5B014A01790107
S1130620380180EE850D803620F00F2EFFE15F2E1D
S1130630F02DC12CD12C35C0E52DF0E0B097EE0F94
S1130640FF1FEE0FFF1FEE0FFF1FEC0DFD1DE859FE
S1130650FF4FD491C0E020C08D2F90E00C2E02C03B
S1130660959587950A94E2F780FF15C0CE9DB00159
S1130670CF9D700D1124CE9CC001CF9C900DDE9CAB
S1130680900D1124680D791D83019701A7018A0D2E
S11306909B1D0E94D102CF5FC830F0F28FEFC81AC1
S11306A0D80A88E0C816D1043CF2DF91CF911F919B
S11306B00F91FF90EF90DF90CF90BF90AF909F90FD
S11306C08F907F906F905F9008958F929F92AF92DA
S11306D0BF92CF92DF92EF92FF920F931F93CF932B
S11306E0DF93EC017B014A016901580114C08501C3
S11306F09601A401B7010E94FD02219680EFE8163D
S1130700F10448F4C601880F991F8C0D9D1D880FB4
S1130710991FE80EF91E88818111E9CFDF91CF91ED
S11307201F910F91FF90EF90DF90CF90BF90AF900B
S11307309F908F9008950F931F9320913F033091C2
S1130740400340914401509145018C0160E070E008
S113075080E090E00E94D1021F910F9108950E94C1
S1130760D7010E94EB010E94F9010E94070283EC69
S113077099E00197F1F700C000000E94000280E0B8
S11307800E9463028BEC0E940E0289E30E941B020A
S11307908CE20E941B0280E00E941B0284E30E9400
S11307A01B0282E00E941B028FEC0E940E0280E07A
S11307B00E941B0281EC0E941B0280E30E941B0228
S11307C088EE0E940E0285E80E941B0280E00E94CF
S11307D01B0288E70E941B028AEE0E940E0280E040
S11307E00E941B0280E00E941B028DEE0E940E02FA
S11307F084E60E941B0283E00E941B0282E10E94A5
S11308001B0281E80E941B0287EF0E940E0280E215
S11308100E941B0280EC0E940E0283E20E941B02D3
S113082081EC0E940E0280E10E941B0285EC0E9472
S11308300E028EE30E941B0288E20E941B0287ECD8
S11308400E940E0286E80E941B0286E30E940E02AA
S113085088E40E941B028AE30E940E0285E50E943E
S11308601B0281EB0E940E0280E00E941B0288E1C1
S11308700E941B0286EB0E940E0288E00E941B026B
S113088082E80E941B0287E20E941B0282EF0E9400
S11308900E0280E00E941B0286E20E940E0281E0AA
S11308A00E941B0280EE0E940E028FE00E941B0237
S11308B081E30E941B028BE20E941B028CE00E94D7
S11308C01B028EE00E941B0288E00E941B028EE441
S11308D00E941B0281EF0E941B0287E30E941B02FD
S11308E087E00E941B0280E10E941B0283E00E94B9
S11308F01B028EE00E941B0289E00E941B0280E022
S11309000E941B0281EE0E940E0280E00E941B02E4
S11309108EE00E941B0284E10E941B0283E00E947D
S11309201B0281E10E941B0287E00E941B0281E3FB
S11309300E941B0281EC0E941B0288E40E941B029D
S113094088E00E941B028FE00E941B028CE00E9440
S11309501B0281E30E941B0286E30E941B028FE0BC
S11309600E941B0281E10E940E028FE295E701972B
S1130970F1F700C0000089E20E940E028CE20E949E
S11309800E0280914201909143010E949B030895BD
S1130990CF93DF93C7E2D3E08AE796EF9983888306
S11309A085E090E09B8B8A8B84E090E09D8B8C8B20
S11309B080E1E2E0F1E0A9E2B3E001900D928A95D2
S11309C0E1F7D0933E03C0933D0340E050E02FC0D5
S11309D0FC01EE0FFF1FEE0FFF1FE95DFC4FE40F5C
S11309E0F51F22812130D1F4FA0133969F01220FA1
S11309F0331FE20FF31FEE0FFF1FEE0FFF1FEE0F6B
S1130A00FF1F9C0122503109E20FF31FEE0FFF1F5D
S1130A10EA5BFE4F27E233E031832083019602C074
S1130A2080E090E0843091059CF24F5F5F4F44304A
S1130A305105B4F3DF91CF910895CF92DF92EF92F5
S1130A40FF920F931F93CF93DF936C01E12CF12C52
S1130A5050C0F701EE0FFF1FEE0DFF1DEE0FFF1F3D
S1130A60EE0FFF1FEE0FFF1FEC0FFD1FEE0FFF1F1A
S1130A70EC0DFD1D0190F081E02D3097C1F0008157
S1130A80118120E130E040E150E0BE0162957295B1
S1130A90707F7627607F7627C701059682959295A9
S1130AA0907F9827807F98270E94D10217C00AEB75
S1130AB017EF20E130E040E150E0BE01629572950D
S1130AC0707F7627607F7627C70105968295929579
S1130AD0907F9827807F98270E94D102219602C098
S1130AE0C0E0D0E0C831D1050CF4B3CF8FEFE81AE1
S1130AF0F80A8AE0E816F1049CF3DF91CF911F9184
S1130B000F91FF90EF90DF90CF90089510928500A1
S1130B1010928400E1E8F0E0808185608083808128
S1130B2088608083809100019091010168EE73E0F8
S1130B300E94ED07072E000C880B990B0E94610799
S1130B402DEB37E346E059E30E94BE060E943007CE
S1130B50709389006093880082E080936F0078949A
S1130B6008951F920F920FB60F9211242F933F9363
S1130B704F935F936F937F938F939F93AF93BF93A1
S1130B80EF93FF9367E170E04BC0FC01EE0FFF1F92
S1130B90E80FF91FEE0FFF1FEE0FFF1FEE0FFF1FF1
S1130BA0E60FF71FEE0FFF1FEA5BFE4F40815181F6
S1130BB020913D0330913E034217530739F5FC0160
S1130BC0EE0FFF1FDF01A80FB91FAA0FBB1FAA0F4B
S1130BD0BB1FAA0FBB1FA60FB71FAA0FBB1FAA5B81
S1130BE0BE4F1D921C92E80FF91FEE0FFF1FEE0F70
S1130BF0FF1FEE0FFF1FAB014F5F5F4FE40FF51FA9
S1130C00EE0FFF1FEA5BFE4F31832083019602C083
S1130C1080E090E08A3091050CF4B7CF61507109FF
S1130C207723B4F781E090E09093410180934001F1
S1130C30FF91EF91BF91AF919F918F917F916F91B0
S1130C405F914F913F912F910F900FBE0F901F9086
S1130C501895CF93DF93CDB7DEB76E970FB6F894A0
S1130C60DEBF0FBECDBF0E94C8040E94AF0380E068
S1130C700E9463028AEB97EF0E949B0307EF1BE835
S1130C8020E431E040E550E060E070E080E090E096
S1130C900E94D1020E9486050FEF1FEF21E030E091
S1130CA04AE050E060E170E082E191E00E94650377
S1130CB089E0EBE1F1E09E012F5F3F4F7901D9011B
S1130CC001900D928A95E1F721E030E048E250E08E
S1130CD06AE070E0C7010E9465031F921F9284E2DC
S1130CE091E09F938F93FF92EF920E94150821E069
S1130CF030E042E350E06AE070E0C7010E9465031F
S1130D0021E030E04EE051E06CE070E087E291E0F9
S1130D100E94650321E030E048E151E067E170E0C2
S1130D2081E391E00E94650321E030E042E251E07A
S1130D3064E270E088E391E00E94650321E030E022
S1130D404CE251E068E170E08AE391E00E946503BF
S1130D5080914001909141010F900F900F900F905E
S1130D600F900F90019709F097CF86E491E00E94CD
S1130D701D0510924101109240018ECF0E94D206AF
S1130D800C94B3070E94AC0758F00E94A50740F0EA
S1130D9029F45F3F29F00C949C0751110C94E70748
S1130DA00C94A2070E94C40768F39923B1F3552356
S1130DB091F3951B550BBB27AA276217730784076A
S1130DC038F09F5F5F4F220F331F441FAA1FA9F300
S1130DD035D00E2E3AF0E0E832D091505040E695EE
S1130DE0001CCAF72BD0FE2F29D0660F771F881F4F
S1130DF0BB1F261737074807AB07B0E809F0BB0B42
S1130E00802DBF01FF2793585F4F3AF09E3F510555
S1130E1078F00C949C070C94E7075F3FE4F3983E4A
S1130E20D4F3869577956795B795F7959F5FC9F73E
S1130E30880F911D9695879597F90895E1E0660FBF
S1130E40771F881FBB1F621773078407BA0720F038
S1130E50621B730B840BBA0BEE1F88F7E0950895A1
S1130E600E94CC0788F09F5798F0B92F9927B75163
S1130E70B0F0E1F0660F771F881F991F1AF0BA953A
S1130E80C9F714C0B13091F00E94E607B1E00895AB
S1130E900C94E607672F782F8827B85F39F0B93F9D
S1130EA0CCF3869577956795B395D9F73EF49095ED
S1130EB08095709561957F4F8F4F9F4F0895E8946B
S1130EC009C097FB3EF490958095709561957F4F8E
S1130ED08F4F9F4F9923A9F0F92F96E9BB2793953C
S1130EE0F695879577956795B795F111F8CFFAF44C
S1130EF0BB0F11F460FF1BC06F5F7F4F8F4F9F4F7D
S1130F0016C0882311F096E911C0772321F09EE8DA
S1130F10872F762F05C0662371F096E8862F70E040
S1130F2060E02AF09A95660F771F881FDAF7880F1A
S1130F309695879597F9089597F99F6780E870E0EB
S1130F4060E008959FEF80EC089500240A9416163B
S1130F50170618060906089500240A9412161306A3
S1130F60140605060895092E0394000C11F4882331
S1130F7052F0BB0F40F4BF2B11F460FF04C06F5F4D
S1130F807F4F8F4F9F4F089557FD9058440F551F23
S1130F9059F05F3F71F04795880F97FB991F61F0F7
S1130FA09F3F79F087950895121613061406551F6E
S1130FB0F2CF4695F1DF08C0161617061806991FDA
S1130FC0F1CF86957105610508940895E894BB27CF
S1130FD066277727CB0197F9089597FB072E16F418
S1130FE0009407D077FD09D00E94010807FC05D0C2
S1130FF03EF4909581959F4F0895709561957F4F2C
S11310000895AA1BBB1B51E107C0AA1FBB1FA6174B
S1131010B70710F0A61BB70B881F991F5A95A9F79D
S113102080959095BC01CD010895AEE0B0E0EBE170
S1131030F8E00C94D60A0D891E8986E08C831A8305
S113104009838FEF9FE79E838D83AE01475E5F4FD9
S11310506F89788DCE0101960E943708EF81F8855B
S1131060E00FF11F10822E96E4E00C94F20AABE03C
S1131070B0E0EDE3F8E00C94C80A6C017B018A014E
S1131080FC0117821682838181FFCCC1CE010196B7
S11310903C01F6019381F70193FD859193FF8191C2
S11310A07F01882309F4BAC1853239F493FD85910F
S11310B093FF81917F01853229F4B60190E00E946B
S11310C02E0AE7CF912C212C312CFFE1F315D8F017
S11310D08B3279F038F4803279F08332A1F4232D05
S11310E020611DC08D3261F0803369F4232D2160AD
S11310F016C0832D8260382EE32DE4603E2E2AC074
S1131100F32DF8601DC037FC2DC020ED280F2A30C8
S113111040F08E32B9F436FC81C1232D2064322E86
S113112019C036FE06C08AE0989E200D1124922E26
S113113011C0EAE02E9E200D1124222EF32DF06220
S11311403F2E08C08C3621F4832D8068382E02C0CF
S1131150883641F4F70193FD859193FF81917F01D6
S11311608111B3CF982F9F7D9554933028F40C5F51
S11311701F4F9FE399830DC0833631F0833771F09D
S1131180833509F059C021C0F801808189830E5F3D
S11311901F4F88248394912C530113C02801F2E03B
S11311A04F0E511CF801A080B18036FE03C0692D9A
S11311B070E002C06FEF7FEFC5010E94230A4C016B
S11311C08201F32DFF773F2E16C0280122E0420E44
S11311D0511CF801A080B18036FE03C0692D70E077
S11311E002C06FEF7FEFC5010E94180A4C01F32D76
S11311F0F0683F2E820133FC1BC0822D90E08816DC
S11312009906B0F4B60180E290E00E942E0A2A9476
S1131210F4CFF50137FC859137FE81915F01B6016A
S113122090E00E942E0A21102A9421E0821A91084B
S11312308114910471F7E8C0843611F0893641F5C0
S1131240F80137FE07C060817181828193810C5F50
S11312501F4F08C060817181072E000C880B990B09
S11312600E5F1F4FF32DFF763F2E97FF09C0909519
S11312708095709561957F4F8F4F9F4FF0683F2EFB
S11312802AE030E0A3010E946A0A882E861845C02D
S1131290853731F4232D2F7EB22E2AE030E025C08D
S11312A0932D997FB92E8F36C1F018F4883579F0D3
S11312B0B5C0803719F0883721F0B0C0E92FE0615C
S11312C0BE2EB4FE0DC0FB2DF460BF2E09C034FE4B
S11312D00AC0292F2660B22E06C028E030E005C0DF
S11312E020E130E002C020E132E0F801B7FE07C09F
S11312F060817181828193810C5F1F4F06C0608180
S1131300718180E090E00E5F1F4FA3010E946A0A82
S1131310882E8618FB2DFF773F2E36FE0DC0232D19
S11313202E7FA22E891458F434FE0BC032FC09C05F
S1131330832D8E7EA82E05C0B82CA32C03C0B82CF8
S113134001C0B92CA4FE0FC0FE01E80DF11D80817F
S1131350803321F49A2D997EA92E09C0A2FE06C0DD
S1131360B394B39404C08A2D867809F0B394A3FC93
S113137011C0A0FE06C0B21488F4280C922C9B184D
S11313800EC0B21460F4B60180E290E00E942E0A0E
S1131390B394F7CFB21418F42B1802C0982C212C54
S11313A0A4FE10C0B60180E390E00E942E0AA2FEC3
S11313B017C0A1FC03C088E790E002C088E590E074
S11313C0B6010CC08A2D867859F0A1FE02C08BE2CA
S11313D001C080E2A7FC8DE2B60190E00E942E0AD3
S11313E0891438F4B60180E390E00E942E0A9A949E
S11313F0F7CF8A94F301E80DF11D8081B60190E0E6
S11314000E942E0A8110F5CF222009F442CEB601A3
S113141080E290E00E942E0A2A94F6CFF60186819B
S1131420978102C08FEF9FEF2B96E2E10C94E40AC0
S1131430FC010590615070400110D8F7809590959B
S11314408E0F9F1F0895FC016150704001900110A0
S1131450D8F7809590958E0F9F1F08950F931F9333
S1131460CF93DF93FB01238121FD03C08FEF9FEF17
S11314702CC022FF16C04681578124813581421732
S1131480530744F4A081B1819D012F5F3F4F318305
S113149020838C93268137812F5F3F4F37832683A8
S11314A014C08B01EC01FB010084F185E02D09954A
S11314B0892BE1F6D80116968D919C911797019688
S11314C017969C938E931697CE01DF91CF911F911F
S11314D00F910895FA01AA27283051F1203181F1A2
S11314E0E8946F936E7F6E5F7F4F8F4F9F4FAF4F28
S11314F0B1E03ED0B4E03CD0670F781F891F9A1F3B
S1131500A11D680F791F8A1F911DA11D6A0F711DEE
S1131510811D911DA11D20D009F468943F912AE0FA
S1131520269F11243019305D3193DEF6CF010895E2
S1131530462F4770405D4193B3E00FD0C9F7F6CF13
S1131540462F4F70405D4A3318F0495D31FD4052DB
S1131550419302D0A9F7EACFB4E0A6959795879571
S113156077956795BA95C9F7009761057105089550
S11315709B01AC010A2E06945795479537952795FC
S1131580BA95C9F7620F731F841F951FA01D089594
S11315902F923F924F925F926F927F928F929F927F
S11315A0AF92BF92CF92DF92EF92FF920F931F936D
S11315B0CF93DF93CDB7DEB7CA1BDB0B0FB6F8941E
S11315C0DEBF0FBECDBF09942A88398848885F845E
S11315D06E847D848C849B84AA84B984C884DF80CF
S11315E0EE80FD800C811B81AA81B981CE0FD11DB3
S11315F00FB6F894DEBF0FBECDBFED010895F89489
S1051600FFCF16
S1131602E8030000000000000000000001010001E6
S113161201004E6F5465747269730050756E746183
S11316226A653A00256400486563686F20706F72CA
S113163200416E64726561007900446965676F00F8
S9030000FC
