S015000050726F796563746F4D6963726F2E73726563C0
S11300000C94BF010C94DC010C94DC010C94DC0115
S11300100C94DC010C94DC010C94DC010C94DC01E8
S11300200C94DC010C94DC010C94DC010C94F508B8
S11300300C94DC010C94DC010C94DC010C94DC01C8
S11300400C94DC010C94DC010C94DC010C94DC01B8
S11300500C94DC010C94DC010C94DC010C94DC01A8
S11300600C94DC010C94DC01660576058605960586
S1130070A605B605C605000000000000000000004B
S11300805F000000000000000700070000000014EB
S11300907F147F14000000242A7F2A12000000230A
S11300A01308646200000036495522500000000025
S11300B0050300000000001C224100000000004174
S11300C0221C0000000000082A1C2A080000000866
S11300D0083E0808000000A06000000000000008BE
S11300E0080808080000006060000000000000200C
S11300F0100804020000003E5149453E0000000083
S1130100427F40000000006251494946000000223D
S1130110414949360000001814127F1000000027DE
S1130120454545390000003C4A494930000000017A
S113013071090503000000364949493600000006EC
S11301404949291E00000000363600000000000066
S1130150AC6C0000000000081422410000000014F0
S113016014141414000000412214080000000002BA
S113017001510906000000324979413E0000007E29
S11301800909097E0000007F494949360000003E04
S1130190414141220000007F4141221C0000007FB8
S11301A0494949410000007F090909010000003E56
S11301B0414151720000007F0808087F000000419F
S11301C07F4100000000002040413F010000007F0B
S11301D0081422410000007F404040400000007F9E
S11301E0020C027F0000007F0408107F0000003E24
S11301F04141413E0000007F090909060000003E1C
S11302004151215E0000007F0919294600000026A3
S11302104949493200000001017F01010000003F0B
S11302204040403F0000001F2040201F0000003FCE
S11302304038403F000000631408146300000003CA
S11302400478040300000061514945430000007F25
S11302504141000000000002040810200000004199
S1130260417F00000000000402010204000000803D
S11302708080808000000001020400000000002053
S1130280545454780000007F484444380000003837
S113029044442800000000384444487F00000038EB
S11302A054545418000000087E090200000000188D
S11302B0A4A4A47C0000007F0804047800000000CB
S11302C07D00000000000080847D00000000007FAD
S11302D010284400000000417F4000000000007C22
S11302E0041804780000007C08047C000000003836
S11302F044443800000000FC2424180000000018C6
S11303002424FC00000000007C08040000000048D5
S113031054542400000000047F4400000000003C0A
S113032040407C000000001C2040201C0000003CD9
S11303304030403C00000044281028440000001CC9
S1130340A0A07C000000004464544C440000000859
S113035036410000000000007F0000000000004162
S11303603608000000000002010102010000000242
S113037005050200000000FFFFFFFFFF000011243D
S11303801FBECFEFD8E0DEBFCDBF11E0A0E0B1E0EB
S1130390E8E5FEE102C005900D92A43AB107D9F751
S11303A024E0A4EAB1E001C01D92A339B207E1F749
S11303B00E947D090C942A0F0C9400008CE284B9ED
S11303C080E58CBD81E08DBD08958EBD0DB407FE22
S11303D0FDCF8EB508958AB180628AB98BB18F7DC5
S11303E08BB908958AB180628AB98BB180628BB966
S11303F008958AB180648AB98BB18F7B8BB90895D3
S11304008AB180648AB98BB180648BB908958AB14A
S113041080618AB98BB180618BB908958AB180619A
S11304208AB98BB18F7E8BB90895CF93C82F0E9460
S1130430F9010E94EB018C2F0E94E5010E94F20158
S1130440CF910895CF93C82F0E9400020E94EB0120
S11304508C2F0E94E5010E94F201CF910895CF9361
S1130460DF93C82FD92F0E9400020E94EB018D2F29
S11304700E94E5018C2F0E94E5010E94F201DF91A8
S1130480CF9108950F931F93CF93DF938C01EB01CA
S11304908AE20E941502C8010E942F02CE010E9426
S11304A02F02DF91CF911F910F9108950F931F9306
S11304B0CF93DF938C01EB018BE20E941502C801FC
S11304C00E942F02CE010E942F02DF91CF911F9133
S11304D00F9108958093780481110DC080EF90E00E
S11304E09093A7018093A60180E491E090939204F5
S11304F0809391040895813061F480E491E09093B5
S1130500A7018093A60180EF90E0909392048093DA
S113051091040895CF92DF92EF92FF920F931F936D
S1130520CF93DF936C01EB018A0179018091780408
S1130530811118C0B601640F751FC6010E944202E2
S1130540BE01CE010E9456028CE20E941502C0E058
S1130550D0E004C0C7010E942F022196C017D10722
S1130560C8F31DC08130D9F4CB010E9442028091AE
S1130570A6019091A7018C199D09BC01801B910BC8
S11305800E9456028CE20E941502C0E0D0E004C032
S1130590C7010E942F022196C017D107C8F3DF912B
S11305A0CF911F910F91FF90EF90DF90CF9008951E
S11305B0CF92DF92EF92FF920F931F93CF93DF932B
S11305C06C01EB018A01790180917804811118C0D2
S11305D0B601C6010E944202BE01600F711FCE0126
S11305E00E9456028CE20E941502C0E0D0E004C0D2
S11305F0C7010E942F022196C017D107C8F31DC05E
S11306008130D9F4640F751FCE010E94420280919B
S1130610A6019091A7018C199D09BC010E94560264
S11306208CE20E941502C0E0D0E004C0C7010E9421
S11306302F022196C017D107C8F3DF91CF911F91E4
S11306400F91FF90EF90DF90CF900895AF92BF92FB
S1130650CF92DF92EF92FF920F931F93CF93DF938A
S1130660EC017B016A01590198010E948A02B701D9
S11306706A0D7B1D9801A601CE010E948A02980191
S1130680A501B701CE010E94D8029801A501B701C6
S1130690CE018C0D9D1D0E94D802DF91CF911F9138
S11306A00F91FF90EF90DF90CF90BF90AF9008959F
S11306B08F929F92AF92BF92CF92DF92EF92FF926E
S11306C00F931F93CF93DF934C015B016A01790170
S11306D0C0E0D0E009C0BE016A0D7B1D9801A601EF
S11306E0C4010E948A022196CE15DF05A0F3DF9192
S11306F0CF911F910F91FF90EF90DF90CF90BF901B
S1130700AF909F908F9008955F926F927F928F9297
S11307109F92AF92BF92CF92DF92EF92FF920F938C
S11307201F93CF93DF93582E5B014A01790138015F
S113073080EE850D803620F00F2EFFE15F2EF02D28
S1130740C12CD12C35C0E52DF0E0B097EE0FFF1F82
S1130750EE0FFF1FEE0FFF1FEC0DFD1DEA58FF4FBC
S1130760D491C0E020C08D2F90E00C2E02C095954E
S113077087950A94E2F780FF15C0CE9DB001CF9D06
S1130780700D1124CE9CC001CF9C900DDE9C900D69
S11307901124680D791D83019701A7018A0D9B1D02
S11307A00E945803CF5FC830F0F28FEFC81AD80AFE
S11307B088E0C816D1043CF2DF91CF911F910F91CC
S11307C0FF90EF90DF90CF90BF90AF909F908F906D
S11307D07F906F905F9008958F929F92AF92BF9297
S11307E0CF92DF92EF92FF920F931F93CF93DF93F9
S11307F0EC017B014A016901580114C0850196018D
S1130800A401B7010E948403219680EFE816F10445
S113081048F4C601880F991F8C0D9D1D880F991FE0
S1130820E80EF91E88818111E9CFDF91CF911F91E4
S11308300F91FF90EF90DF90CF90BF90AF909F907B
S11308408F9008950F931F932091910430919204F7
S11308504091A6015091A7018C0160E070E080E016
S113086090E00E9458031F910F9108950E94DE01A9
S11308700E94F2010E9400020E940E0283EC99E0A1
S11308800197F1F700C000000E94070280E00E9477
S11308906A028BEC0E94150289E30E9422028CE218
S11308A00E94220280E00E94220284E30E9422022B
S11308B082E00E9422028FEC0E94150280E00E94D6
S11308C0220281EC0E94220280E30E94220288EE2E
S11308D00E94150285E80E94220280E00E94220202
S11308E088E70E9422028AEE0E94150280E00E949C
S11308F0220280E00E9422028DEE0E94150284E60C
S11309000E94220283E00E94220282E10E942202CB
S113091081E80E94220287EF0E94150280E20E9471
S1130920220280EC0E94150283E20E94220281ECE2
S11309300E94150280E10E94220285EC0E941502A9
S11309408EE30E94220288E20E94220287EC0E9427
S1130950150286E80E94220286E30E94150288E4BA
S11309600E9422028AE30E94150285E50E94220267
S113097081EB0E94150280E00E94220288E10E941D
S1130980220286EB0E94150288E00E94220282E87D
S11309900E94220287E20E94220282EF0E94150234
S11309A080E00E94220286E20E94150281E00E94F9
S11309B0220280EE0E9415028FE00E94220281E34F
S11309C00E9422028BE20E9422028CE00E942202F8
S11309D08EE00E94220288E00E9422028EE40E949D
S11309E0220281EF0E94220287E30E94220287E012
S11309F00E94220280E10E94220283E00E942202DD
S1130A008EE00E94220289E00E94220280E00E947D
S1130A10220281EE0E94150280E00E9422028EE0F2
S1130A200E94220284E10E94220283E00E942202A8
S1130A3081E10E94220287E00E94220281E30E9457
S1130A40220281EC0E94220288E40E94220288E0B1
S1130A500E9422028FE00E9422028CE00E94220265
S1130A6081E30E94220286E30E9422028FE00E9418
S1130A70220281E10E9415028FE295E70197F1F7C6
S1130A8000C0000089E20E9415028CE20E94150257
S1130A908091A4019091A5010E94220408950E94CE
S1130AA0DC0B67E070E00E94530BE9E7F4E023E01D
S1130AB030E0338B228B158A148A8730910508F035
S1130AC074C0FC01EC5CFF4F0C94670B8FEF95E056
S1130AD090937A048093790480E1E6E6F1E0ABE751
S1130AE0B4E001900D928A95E1F75FC080E09AEF3F
S1130AF090937A048093790480E1E6E5F1E0ABE732
S1130B00B4E001900D928A95E1F74FC080EE9FEF1B
S1130B1090937A048093790480E1E6E4F1E0ABE712
S1130B20B4E001900D928A95E1F73FC08FE190E027
S1130B3090937A048093790480E1E6E3F1E0ABE7F3
S1130B40B4E001900D928A95E1F72FC080EE97E012
S1130B5090937A048093790480E1E6E2F1E0ABE7D4
S1130B60B4E001900D928A95E1F71FC080E098EF00
S1130B7090937A048093790480E1E6E1F1E0ABE7B5
S1130B80B4E001900D928A95E1F70FC08FE198EFE0
S1130B9090937A048093790480E1E6E0F1E0ABE796
S1130BA0B4E001900D928A95E1F789E794E090937F
S1130BB0900480938F040895EF92FF920F931F93F4
S1130BC0CF93DF9380918F0490919004892B09F443
S1130BD069C0E12CF12C62C0A0918F04B091900403
S1130BE0FE01EE0FFF1FEE0FFF1FEA0FFB1FEE0DBE
S1130BF0FF1D8281813009F046C054966D917C912D
S1130C005597645071096C0F7D1F62957295707FC2
S1130C107627607F762752968D919C9153978E0DFF
S1130C209F1D05960D911C9120E130E040E150E0BC
S1130C3082959295907F9827807F98270E945803E9
S1130C40E0918F04F091900464897589645071096E
S1130C506C0F7D1F62957295707F7627607F762773
S1130C60828993898E0D9F1D059600E010E020E196
S1130C7030E040E150E082959295907F9827807F04
S1130C8098270E942603219602C0C0E0D0E0C43019
S1130C90D1050CF4A1CF8FEFE81AF80A84E0E81626
S1130CA0F1049CF3DF91CF911F910F91FF90EF908E
S1130CB00895AF92BF92CF92DF92EF92FF920F937B
S1130CC01F93CF93DF93E12CF12C72C0FE01EE0F42
S1130CD0FF1FEC0FFD1F28E42E9DC0012F9D900DDA
S1130CE01124E80FF91FE855FE4F808181111AC0C5
S1130CF0BE016450710962957295707F7627607F9A
S1130D0076270AEB17EF20E130E040E150E0C7011D
S1130D10059682959295907F9827807F98270E94C8
S1130D2058033BC05E0184E0A81AB108AA0CBB1C9E
S1130D30AA0CBB1CAA0CBB1CAA0CBB1C670185E03B
S1130D40C80ED11CCC0CDD1CCC0CDD1CCC0CDD1C69
S1130D50CC0CDD1CFE01EE0FFF1FEC0FFD1F28E481
S1130D602E9DC0012F9D900D1124E80FF91FE85509
S1130D70FE4F0181128120E130E040E150E0B501F5
S1130D80C6010E94580300E010E020E130E040E199
S1130D9050E0B501C6010E942603219602C0C4E0BA
S1130DA0D0E0C831D1050CF491CF8FEFE81AF80ADE
S1130DB08AE0E816F1049CF3DF91CF911F910F9123
S1130DC0FF90EF90DF90CF90BF90AF900895DF92A7
S1130DD0EF92FF920F931F93CF93DF93009709F045
S1130DE06AC0A0918F04B09190045296CD91DC9189
S1130DF05397BE016150710953967C936E93529739
S1130E0020E030E052C0A901460F571F552374F16A
S1130E10FC01EE0FFF1FEE0FFF1FEA0FFB1FE20F97
S1130E20F31FE281E13011F55496ED91FC91559751
S1130E30E80FF91F8F01000F111FE00FF11F0F2E94
S1130E40F8E4FF2EF02DF49E8001F59E100D112480
S1130E50E00FF11FE855FE4FE081E13039F453967D
S1130E60DC93CE93529781E090E006C1FC01EE0F33
S1130E70FF1FEE0FFF1FEA0FFB1FE20FF31FE281BC
S1130E80E13049F455233CF45396DC93CE935297C6
S1130E9081E090E0F1C0019602C080E090E08430EF
S1130EA091050CF4B0CF2F5F3F4F24303105ACF3E4
S1130EB080E090E0E1C08130910509F06CC0A09120
S1130EC08F04B09190045296CD91DC915397BE015A
S1130ED06F5F7F4F53967C936E93529720E030E080
S1130EE054C0A901460F571F4A30510574F5FC013F
S1130EF0EE0FFF1FEE0FFF1FEA0FFB1FE20FF31FA2
S1130F00E281E13011F55496ED91FC915597E80F8B
S1130F10F91F8F01000F111FE00FF11F0F2EF8E4CE
S1130F20FF2EF02DF49E8001F59E100D1124E00F8C
S1130F30F11FE855FE4FE081E13039F45396DC931C
S1130F40CE93529781E090E097C0FC01EE0FFF1F13
S1130F50EE0FFF1FEA0FFB1FE20FF31FE281E130E8
S1130F6051F44A3051053CF05396DC93CE9352979A
S1130F7081E090E081C0019602C080E090E084307E
S1130F8091050CF4AECF2F5F3F4F24303105ACF305
S1130F9080E090E071C0029709F06CC0A0918F04CA
S1130FA0B09190045496CD91DC915597BE016F5F3A
S1130FB07F4F55967C936E93549740E050E054C015
S1130FC09C01260F371F2831310574F5FC01EE0F03
S1130FD0FF1FEE0FFF1FEA0FFB1FE40FF51FE28157
S1130FE0E13011F55296ED90FC905397E40EF51E06
S1130FF0F901EE0FFF1FE20FF31F0F2EF8E4DF2EAF
S1131000F02DDE9C8001DF9C100D1124E00FF11FF8
S1131010E855FE4FE081E13039F45596DC93CE93E8
S1131020549781E090E028C0FC01EE0FFF1FEE0F03
S1131030FF1FEA0FFB1FE40FF51FE281E13051F4BB
S1131040283131053CF05596DC93CE93549781E0DA
S113105090E012C0019602C080E090E084309105D7
S11310600CF4AECF4F5F5F4F44305105ACF380E0DA
S113107090E002C080E090E0DF91CF911F910F914A
S1131080FF90EF90DF900895CF9320E030E058C0B8
S1131090A0918F04B0919004FC01EE0FFF1FEE0F9E
S11310A0FF1FEA0FFB1FE20FF31F42814130F1F5EE
S11310B052966D917C915397620F731F54964D9184
S11310C05C915597480F591FFA01EE0FFF1F4E0F01
S11310D05F1FC8E4C69FF001C79FF00D11244E0F97
S11310E05F1FFA01E855FE4F41E0408352966D912F
S11310F07C915397620F731F54964D915C91559751
S1131100480F591F0D90BC91A02DFA01EE0FFF1F3F
S11311104E0F5F1FC69FF001C79FF00D11244E0FA5
S11311205F1FFA01E855FE4FB283A183019602C006
S113113080E090E0843091050CF4AACF2F5F3F4FFC
S113114024303105ACF31092900410928F04CF91A7
S1131150089520918F0430919004232BD1F0813095
S1131160910551F08230910561F0892B91F480E072
S113117090E00E94E706089581E090E00E94E7066F
S1131180089582E090E00E94E706019711F40E941E
S1131190440808951092850010928400E1E8F0E07C
S11311A08081856080838081886080838091040150
S11311B09091050168EE73E00E94530B072E000C1A
S11311C0880B990B0E94C70A2DEB37E346E059E3DD
S11311D00E94240A0E94960A7093890060938800F2
S11311E082E080936F00789408951F920F920FB657
S11311F00F9211242F933F934F935F936F937F9399
S11312008F939F93AF93BF93EF93FF9382E090E00C
S11312100E94A908FF91EF91BF91AF919F918F9187
S11312207F916F915F914F913F912F910F900FBEDE
S11312300F901F90189580E480937C0086E880933B
S11312407A000895EAE7F0E08081806480838091E9
S11312507A0086FDFCCF8091780090917900089502
S11312600F931F93CF93DF93C0E0D0E000E010E032
S113127016C00E9422099C012F703327CE016CE016
S113128070E00E94530B02C0220F331F8A95E2F7CD
S11312900227132783E08A95F1F700002196C031D5
S11312A0D1053CF3C801DF91CF911F910F910895AF
S11312B060E070E01EC0F901EE0FFF1FE20FF31FA4
S11312C048E4469FC001479F900D1124E80FF91F81
S11312D0E855FE4F10828FEF9FEF928381832F5F3B
S11312E03F4F02C020E030E02831310524F36F5F26
S11312F07F4F6A307105B4F30895CF93DF93CDB770
S1131300DEB76E970FB6F894DEBF0FBECDBF0E9456
S113131058090E94360480E00E946A028AEB97EF23
S11313200E94220407EF1BE820E431E040E550E08E
S113133060E070E080E090E00E94580300E010E07C
S11313402FE331E04FE450E060E070E080E090E0B3
S11313500E9426030E94CA080E941B090E943009A9
S11313600E94E10B0FEF1FEF21E030E04EE051E06F
S11313706CE070E086E791E00E94EC0321E030E04D
S113138048E151E067E170E080E891E00E94EC03FD
S113139021E030E042E251E064E270E087E891E06D
S11313A00E94EC0321E030E04CE251E068E170E09F
S11313B089E891E00E94EC030FEF1FEF21E030E099
S11313C04AE050E060E170E08FE891E00E94EC03B5
S11313D089E0E8E9F1E09E012F5F3F4F7901D901EF
S11313E001900D928A95E1F721E030E048E250E067
S11313F06AE070E0C7010E94EC031F921F9281EA29
S113140091E09F938F93FF92EF920E94EC0B21E067
S113141030E042E350E06AE070E0C7010E94EC0370
S11314200E9459060E94DC0580918F0490919004DB
S11314300F900F900F900F900F900F90892B09F041
S1131440BBCF0E944F05B8CF0E94380A0C94190BE9
S11314500E94120B58F00E940B0B40F029F45F3FDE
S113146029F00C94020B51110C944D0B0C94080BA5
S11314700E942A0B68F39923B1F3552391F3951B2A
S1131480550BBB27AA2762177307840738F09F5FA1
S11314905F4F220F331F441FAA1FA9F335D00E2E0E
S11314A03AF0E0E832D091505040E695001CCAF77B
S11314B02BD0FE2F29D0660F771F881FBB1F26173E
S11314C037074807AB07B0E809F0BB0B802DBF0115
S11314D0FF2793585F4F3AF09E3F510578F00C94E4
S11314E0020B0C944D0B5F3FE4F3983ED4F38695C6
S11314F077956795B795F7959F5FC9F7880F911D05
S11315009695879597F90895E1E0660F771F881FF0
S1131510BB1F621773078407BA0720F0621B730BA3
S1131520840BBA0BEE1F88F7E09508950E94320BE6
S113153088F09F5798F0B92F9927B751B0F0E1F090
S1131540660F771F881F991F1AF0BA95C9F714C040
S1131550B13091F00E944C0BB1E008950C944C0B07
S1131560672F782F8827B85F39F0B93FCCF3869579
S113157077956795B395D9F73EF4909580957095D6
S113158061957F4F8F4F9F4F0895E89409C097FB53
S11315903EF490958095709561957F4F8F4F9F4F46
S11315A09923A9F0F92F96E9BB279395F69587958A
S11315B077956795B795F111F8CFFAF4BB0F11F44D
S11315C060FF1BC06F5F7F4F8F4F9F4F16C08823F4
S11315D011F096E911C0772321F09EE8872F762F2A
S11315E005C0662371F096E8862F70E060E02AF06B
S11315F09A95660F771F881FDAF7880F9695879557
S113160097F9089597F99F6780E870E060E008957E
S11316109FEF80EC089500240A9416161706180606
S11316200906089500240A941216130614060506E2
S11316300895092E0394000C11F4882352F0BB0F73
S113164040F4BF2B11F460FF04C06F5F7F4F8F4FD6
S11316509F4F089557FD9058440F551F59F05F3F11
S113166071F04795880F97FB991F61F09F3F79F0C0
S113167087950895121613061406551FF2CF469542
S1131680F1DF08C0161617061806991FF1CF8695C4
S11316907105610508940895E894BB2766277727A8
S11316A0CB0197F9089597FB072E16F4009407D001
S11316B077FD09D00E947C0B07FC05D03EF4909581
S11316C081959F4F0895709561957F4F0895EE0F12
S11316D0FF1F0590F491E02D0994A29FB001B39FE0
S11316E0C001A39F700D811D1124911DB29F700D27
S11316F0811D1124911D0895AA1BBB1B51E107C034
S1131700AA1FBB1FA617B70710F0A61BB70B881F8D
S1131710991F5A95A9F780959095BC01CD0108951C
S11317208F929F92AF92BF92CF92DF92EF92FF92ED
S1131730CF93DF93EC01688179818A819B81611564
S113174071058105910521F464E279ED8BE597E05B
S11317502DE133EF41E050E00E949F0E49015A0110
S11317609B01AC01A7EAB1E40E94BE0E6B017C01AF
S1131770ACEEB4EFA50194010E94CC0EDC01CB01C8
S11317808C0D9D1DAE1DBF1DB7FF03C00197A109A0
S1131790B04888839983AA83BB839F77DF91CF91D5
S11317A0FF90EF90DF90CF90BF90AF909F908F907D
S11317B008950E94900B089580E091E00E94900BA0
S11317C00895A0E0B0E08093000190930101A093FC
S11317D00201B09303010895AEE0B0E0E2EFFBE054
S11317E00C94DF0E0D891E8986E08C831A8309838D
S11317F08FEF9FE79E838D83AE01475E5F4F6F89B6
S1131800788DCE0101960E940E0CEF81F885E00FD1
S1131810F11F10822E96E4E00C94FB0EABE0B0E0D6
S1131820E4E1FCE00C94D10E6C017B018A01FC0123
S113183017821682838181FFCCC1CE0101963C01BF
S1131840F6019381F70193FD859193FF81917F01C7
S1131850882309F4BAC1853239F493FD859193FF45
S113186081917F01853229F4B60190E00E94050E32
S1131870E7CF912C212C312CFFE1F315D8F08B32DA
S113188079F038F4803279F08332A1F4232D206189
S11318901DC08D3261F0803369F4232D216016C0A0
S11318A0832D8260382EE32DE4603E2E2AC0F32D72
S11318B0F8601DC037FC2DC020ED280F2A3040F001
S11318C08E32B9F436FC81C1232D2064322E19C026
S11318D036FE06C08AE0989E200D1124922E11C077
S11318E0EAE02E9E200D1124222EF32DF0623F2ECD
S11318F008C08C3621F4832D8068382E02C08836C7
S113190041F4F70193FD859193FF81917F0181114A
S1131910B3CF982F9F7D9554933028F40C5F1F4FBD
S11319209FE399830DC0833631F0833771F083359B
S113193009F059C021C0F801808189830E5F1F4FCF
S113194088248394912C530113C02801F2E04F0E94
S1131950511CF801A080B18036FE03C0692D70E0EF
S113196002C06FEF7FEFC5010E94FA0D4C018201A6
S1131970F32DFF773F2E16C0280122E0420E511CA2
S1131980F801A080B18036FE03C0692D70E002C06A
S11319906FEF7FEFC5010E94EF0D4C01F32DF0684E
S11319A03F2E820133FC1BC0822D90E088169906DD
S11319B0B0F4B60180E290E00E94050E2A94F4CFC0
S11319C0F50137FC859137FE81915F01B60190E006
S11319D00E94050E21102A9421E0821A9108811494
S11319E0910471F7E8C0843611F0893641F5F801A5
S11319F037FE07C060817181828193810C5F1F4F24
S1131A0008C060817181072E000C880B990B0E5F52
S1131A101F4FF32DFF763F2E97FF09C090958095B9
S1131A20709561957F4F8F4F9F4FF0683F2E2AE04E
S1131A3030E0A3010E94410E882E861845C08537E8
S1131A4031F4232D2F7EB22E2AE030E025C0932DD1
S1131A50997FB92E8F36C1F018F4883579F0B5C066
S1131A60803719F0883721F0B0C0E92FE061BE2E2D
S1131A70B4FE0DC0FB2DF460BF2E09C034FE0AC0B5
S1131A80292F2660B22E06C028E030E005C020E1F0
S1131A9030E002C020E132E0F801B7FE07C0608107
S1131AA07181828193810C5F1F4F06C060817181B7
S1131AB080E090E00E5F1F4FA3010E94410E882E2C
S1131AC08618FB2DFF773F2E36FE0DC0232D2E7F6B
S1131AD0A22E891458F434FE0BC032FC09C0832DA5
S1131AE08E7EA82E05C0B82CA32C03C0B82C01C030
S1131AF0B92CA4FE0FC0FE01E80DF11D80818033D6
S1131B0021F49A2D997EA92E09C0A2FE06C0B39491
S1131B10B39404C08A2D867809F0B394A3FC11C051
S1131B20A0FE06C0B21488F4280C922C9B180EC098
S1131B30B21460F4B60180E290E00E94050EB39402
S1131B40F7CFB21418F42B1802C0982C212CA4FE41
S1131B5010C0B60180E390E00E94050EA2FE17C0FB
S1131B60A1FC03C088E790E002C088E590E0B601DC
S1131B700CC08A2D867859F0A1FE02C08BE201C008
S1131B8080E2A7FC8DE2B60190E00E94050E891464
S1131B9038F4B60180E390E00E94050E9A94F7CFE2
S1131BA08A94F301E80DF11D8081B60190E00E9452
S1131BB0050E8110F5CF222009F442CEB60180E251
S1131BC090E00E94050E2A94F6CFF6018681978153
S1131BD002C08FEF9FEF2B96E2E10C94ED0EFC0117
S1131BE00590615070400110D8F7809590958E0F44
S1131BF09F1F0895FC016150704001900110D8F7B7
S1131C00809590958E0F9F1F08950F931F93CF93E8
S1131C10DF93FB01238121FD03C08FEF9FEF2CC0D5
S1131C2022FF16C04681578124813581421753070C
S1131C3044F4A081B1819D012F5F3F4F3183208304
S1131C408C93268137812F5F3F4F3783268314C0BF
S1131C508B01EC01FB010084F185E02D0995892BB2
S1131C60E1F6D80116968D919C91179701961796D7
S1131C709C938E931697CE01DF91CF911F910F9174
S1131C800895FA01AA27283051F1203181F1E8940E
S1131C906F936E7F6E5F7F4F8F4F9F4FAF4FB1E05B
S1131CA03ED0B4E03CD0670F781F891F9A1FA11D56
S1131CB0680F791F8A1F911DA11D6A0F711D811D57
S1131CC0911DA11D20D009F468943F912AE0269F1C
S1131CD011243019305D3193DEF6CF010895462F7B
S1131CE04770405D4193B3E00FD0C9F7F6CF462F5C
S1131CF04F70405D4A3318F0495D31FD40524193C5
S1131D0002D0A9F7EACFB4E0A69597958795779581
S1131D106795BA95C9F700976105710508959B0108
S1131D20AC010A2E06945795479537952795BA9591
S1131D30C9F7620F731F841F951FA01D0895052EF8
S1131D4097FB1EF400940E94B60E57FD07D00E9424
S1131D50080F07FC03D04EF40C94B60E5095409532
S1131D60309521953F4F4F4F5F4F08959095809543
S1131D70709561957F4F8F4F9F4F08950E946D0B13
S1131D80A59F900DB49F900DA49F800D911D1124CB
S1131D900895B7FF0C94BE0E0E94BE0E821B930BD7
S1131DA008952F923F924F925F926F927F928F92FB
S1131DB09F92AF92BF92CF92DF92EF92FF920F93D6
S1131DC01F93CF93DF93CDB7DEB7CA1BDB0B0FB6E0
S1131DD0F894DEBF0FBECDBF09942A88398848889D
S1131DE05F846E847D848C849B84AA84B984C88433
S1131DF0DF80EE80FD800C811B81AA81B981CE0F2A
S1131E00D11D0FB6F894DEBF0FBECDBFED0108950E
S1131E10A1E21A2EAA1BBB1BFD010DC0AA1FBB1FEA
S1131E20EE1FFF1FA217B307E407F50720F0A21B5C
S1131E30B30BE40BF50B661F771F881F991F1A94C9
S1131E4069F760957095809590959B01AC01BD01F3
S10B1E50CF010895F894FFCFBF
S1131E5801000000B00400000000000000000001C0
S1131E680101000001000000000000000000000162
S1131E780100000001010000000000000000000053
S1131E880101000101000000010000000100000040
S1131E980100000101000000000000000000000033
S1131EA80101000001010000000000000100000021
S1131EB80100000001010000010000000100000011
S1131EC8010000000100486563686F20706F7200AC
S1131ED8416E64726561007900446965676F004EFC
S1131EE86F5465747269730050756E74616A653AEB
S1071EF80025640059
S9030000FC
