S015000050726F796563746F4D6963726F2E73726563C0
S11300000C94BF010C94DC010C94DC010C94DC0115
S11300100C94DC010C94DC010C94DC010C94DC01E8
S11300200C94DC010C94DC010C94DC010C94C30AE8
S11300300C94DC010C94DC010C94DC010C94DC01C8
S11300400C94DC010C94DC010C94DC010C94DC01B8
S11300500C94DC010C94DC010C94DC010C94DC01A8
S11300600C94DC010C94DC01B505C505D505E5054A
S1130070F50505061506000000000000000000005C
S1130080005F0000000000000700070000000014EB
S11300907F147F14000000242A7F2A12000000230A
S11300A01308646200000036495522500000000025
S11300B0050300000000001C224100000000004174
S11300C0221C0000000000082A1C2A080000000866
S11300D0083E0808000000A06000000000000008BE
S11300E0080808080000006060000000000000200C
S11300F0100804020000003E5149453E0000000083
S1130100427F40000000006251494946000000223D
S1130110414949360000001814127F1000000027DE
S1130120454545390000003C4A494930000000017A
S113013071090503000000364949493600000006EC
S11301404949291E00000000363600000000000066
S1130150AC6C0000000000081422410000000014F0
S113016014141414000000412214080000000002BA
S113017001510906000000324979413E0000007E29
S11301800909097E0000007F494949360000003E04
S1130190414141220000007F4141221C0000007FB8
S11301A0494949410000007F090909010000003E56
S11301B0414151720000007F0808087F000000419F
S11301C07F4100000000002040413F010000007F0B
S11301D0081422410000007F404040400000007F9E
S11301E0020C027F0000007F0408107F0000003E24
S11301F04141413E0000007F090909060000003E1C
S11302004151215E0000007F0919294600000026A3
S11302104949493200000001017F01010000003F0B
S11302204040403F0000001F2040201F0000003FCE
S11302304038403F000000631408146300000003CA
S11302400478040300000061514945430000007F25
S11302504141000000000002040810200000004199
S1130260417F00000000000402010204000000803D
S11302708080808000000001020400000000002053
S1130280545454780000007F484444380000003837
S113029044442800000000384444487F00000038EB
S11302A054545418000000087E090200000000188D
S11302B0A4A4A47C0000007F0804047800000000CB
S11302C07D00000000000080847D00000000007FAD
S11302D010284400000000417F4000000000007C22
S11302E0041804780000007C08047C000000003836
S11302F044443800000000FC2424180000000018C6
S11303002424FC00000000007C08040000000048D5
S113031054542400000000047F4400000000003C0A
S113032040407C000000001C2040201C0000003CD9
S11303304030403C00000044281028440000001CC9
S1130340A0A07C000000004464544C440000000859
S113035036410000000000007F0000000000004162
S11303603608000000000002010102010000000242
S1130370050502000000FFFFFFFFFFFFFFFF112440
S11303801FBECFEFD8E0DEBFCDBF12E0A0E0B1E0EA
S1130390E4ECF6E202C005900D92AA30B107D9F759
S11303A025E0AAE0B2E001C01D92A230B207E1F755
S11303B00E94920B0C9460130C940000FC01608367
S11303C0418322839AB141E050E0BA0102C0660F32
S11303D0771F2A95E2F7862F809589238AB98BB1F6
S11303E0028002C0440F551F0A94E2F7482B4BB910
S11303F080E480937C0087E880937A000895ECE79A
S1130400F0E09081907F8F70892B8083EAE7F0E0A1
S113041080818064808380917A0086FDFCCF809106
S11304207800909179000895FC0180810E94FF0179
S11304300895FC0181810E94FF01089529B130E0F3
S1130440FC01028002C0359527950A94E2F781E009
S113045090E020FF02C080E090E008958CE284B92F
S113046080E58CBD8DB581608DBD08958EBD0DB4C4
S113047007FEFDCF8EB5089584B1816084B985B13E
S11304808E7F85B9089584B1816084B985B1816016
S113049085B9089584B1846084B985B18B7F85B9A9
S11304A0089584B1846084B985B1846085B9089560
S11304B084B1826084B985B1826085B9089584B1BC
S11304C0826084B985B18D7F85B90895CF93C82F93
S11304D00E944A020E943C028C2F0E9436020E9413
S11304E04302CF910895CF93C82F0E9451020E94D6
S11304F03C028C2F0E9436020E944302CF91089541
S1130500CF93DF93C82FD92F0E9451020E943C023F
S11305108D2F0E9436028C2F0E9436020E944302C5
S1130520DF91CF9108950F931F93CF93DF938C01A5
S1130530EB018AE20E946602C8010E948002CE0199
S11305400E948002DF91CF911F910F9108950F9324
S11305501F93CF93DF938C01EB018BE20E94660221
S1130560C8010E948002CE010E948002DF91CF91D7
S11305701F910F910895EF92FF920F931F93CF93C2
S1130580DF93EB018A0179019C01240F351F213F80
S1130590310520F000EF10E0081B190BC03421E0F6
S11305A0D207C0F4B801680F791F615071090E9425
S11305B09302BE01CE010E94A7028CE20E94660251
S11305C0C0E0D0E004C0C7010E9480022196C01799
S11305D0D107C8F3DF91CF911F910F91FF90EF9056
S11305E00895EF92FF920F931F93CF93DF93EB0144
S11305F08A0179019B01240F351F2134314020F0F9
S113060000E411E0061B170B803F9105C0F4BC0108
S11306100E949302B8016C0F7D1F61507109CE01D5
S11306200E94A7028CE20E946602C0E0D0E004C0EF
S1130630C7010E9480022196C017D107C8F3DF9139
S1130640CF911F910F91FF90EF900895AF92BF92B9
S1130650CF92DF92EF92FF920F931F93CF93DF938A
S1130660EC017B016A01590198010E94BB02B701A8
S11306706A0D7B1D9801A601CE010E94BB02980160
S1130680A501B701CE010E94F1029801A501B701AD
S1130690CE018C0D9D1D0E94F102DF91CF911F911F
S11306A00F91FF90EF90DF90CF90BF90AF9008959F
S11306B08F929F92AF92BF92CF92DF92EF92FF926E
S11306C00F931F93CF93DF936B017A01E901803F6E
S11306D0910508F047C06034714008F043C09C01A4
S11306E0240F351F213F310528F020EF30E0790138
S11306F0E81AF90A96012C0F3D1F2134314020F0ED
S1130700C0E4D1E0CC19DD09E114F10459F12097DA
S113071049F1B701680F791F615071090E94930272
S1130720BE016C0D7D1D61507109C6010E94A702B6
S11307308CE20E9466029701DE010E94A30F4B0126
S11307405C01C12CD12C760108C0C8010E94800232
S11307508FEFC81AD80AE80AF80AC814D904EA04B8
S1130760FB0498F3DF91CF911F910F91FF90EF90CD
S1130770DF90CF90BF90AF909F908F9008954F924D
S11307805F926F927F928F929F92AF92BF92CF921D
S1130790DF92EF92FF920F931F93CF93DF935B014E
S11307A04A017901602E512E603F710508F054C052
S11307B04034514008F050C090EE980F903608F045
S11307C08FE30F2EF0EE4F2EF02D480EC12CD12CBE
S11307D03EC0E42DF0E0EE0FFF1FEE0FFF1FEE0F03
S11307E0FF1FEC0DFD1DEA58FF4F7490C0E0D0E0F0
S11307F028C0872D90E00C2E02C0959587950A9409
S1130800E2F780FD05C0009111021091120202C0AE
S1130810062D152DCE9DB001CF9D700DDE9D700D62
S11308201124CE9CC001CF9C900DDE9C900D112410
S1130830680D791D9701A7018A0D9B1D0E9458031D
S11308402196C830D105ACF28FEFC81AD80A98E0C7
S1130850C916D1040CF4BDCFDF91CF911F910F9134
S1130860FF90EF90DF90CF90BF90AF909F908F90CC
S11308707F906F905F904F9008958F929F92AF9268
S1130880BF92CF92DF92EF92FF920F931F93CF9379
S1130890DF937C01EB014A016901580115C0850110
S11308A09601A401BE010E94BF038FEFE81AF80A63
S11308B0C601880F991F8C0D9D1D880F991FC80FA5
S11308C0D91FC03FD10520F4F70180818111E7CF02
S11308D0DF91CF911F910F91FF90EF90DF90CF9018
S11308E0BF90AF909F908F9008950F931F938C01AA
S11308F020E431E040EF50E060E070E080E090E020
S11309000E9458031F910F9108950E942E020E9485
S113091043020E9451020E945F0283EC99E0019716
S1130920F1F700C000000E9458028FE295E701979A
S1130930F1F700C0000081E00E9466028BE792E9B3
S11309400197F1F700C0000081E10E9466028BE785
S113095092E90197F1F700C0000080EC0E94660262
S113096083E20E94730281EC0E94660280E10E948D
S1130970730285EC0E9466028EE30E94730288E291
S11309800E94730287EC0E94660286E80E9473024A
S113099086E30E94660288E40E9473028AE30E944E
S11309A0660285E50E94730281EB0E94660280E084
S11309B00E94730288E10E94730286EB0E94660221
S11309C088E00E94730282E80E94730287E20E9418
S11309D0730282EF0E94660280E00E94730286E244
S11309E00E94660281E00E94730280EE0E94660209
S11309F08FE00E94730281E30E9473028BE20E94E3
S1130A0073028CE00E9473028EE00E94730288E0FD
S1130A100E9473028EE40E94730281EF0E947302AB
S1130A2087E30E94730287E00E94730280E10E94C0
S1130A30730283E00E9473028EE00E94730289E0D5
S1130A400E94730280E00E94730281EE0E9466029B
S1130A5080E00E9473028EE00E94730284E10E948F
S1130A60730283E00E94730281E10E94730287E0B3
S1130A700E94730281E30E94730281EC0E9473025C
S1130A8088E40E94730288E00E9473028FE00E944F
S1130A9073028CE00E94730281E30E94730286E376
S1130AA00E9473028FE00E94730281E10E94660239
S1130AB08FE295E70197F1F700C0000089E20E94F8
S1130AC0660287E893E10197F1F700C000008CE229
S1130AD00E94660280911102909112020E94750494
S1130AE00895F999FECF92BD81BD8FB381608FBB0C
S1130AF080B50895F999FECF92BD81BD60BD8FB3D5
S1130B0084608FBB8FB382608FBB08951F93CF9394
S1130B10DF93EC01162F0E947105811721F0612FDC
S1130B20CE010E947A05DF91CF911F9108958AB179
S1130B3080688AB98BB18F778BB908950E9412109F
S1130B4067E070E00E94890FE5EEF4E023E030E016
S1130B50338B228B158A148A8730910508F074C070
S1130B60FC01EC5CFF4F0C949D0F8FEF95E090938C
S1130B70E6048093E50480E1E6E6F1E0A7EEB4E064
S1130B8001900D928A95E1F75FC080E09AEF90930F
S1130B90E6048093E50480E1E6E5F1E0A7EEB4E045
S1130BA001900D928A95E1F74FC080EE9FEF9093EC
S1130BB0E6048093E50480E1E6E4F1E0A7EEB4E026
S1130BC001900D928A95E1F73FC08FE190E09093F8
S1130BD0E6048093E50480E1E6E3F1E0A7EEB4E007
S1130BE001900D928A95E1F72FC080EE97E09093E3
S1130BF0E6048093E50480E1E6E2F1E0A7EEB4E0E8
S1130C0001900D928A95E1F71FC080E098EF9093D0
S1130C10E6048093E50480E1E6E1F1E0A7EEB4E0C8
S1130C2001900D928A95E1F70FC08FE198EF9093B0
S1130C30E6048093E50480E1E6E0F1E0A7EEB4E0A9
S1130C4001900D928A95E1F785EE94E09093010569
S1130C50809300050895EF92FF920F931F93CF9313
S1130C60DF938091000590910105892B09F469C0F7
S1130C70E12CF12C62C0A0910005B0910105FE01A8
S1130C80EE0FFF1FEE0FFF1FEA0FFB1FEE0DFF1D00
S1130C908281813009F046C054966D917C915597BC
S1130CA0645071096C0F7D1F62957295707F762771
S1130CB0607F762752968D919C9153978E0D9F1D40
S1130CC005960D911C9120E130E040E150E08295C1
S1130CD09295907F9827807F98270E945803E091EF
S1130CE00005F091010564897589645071096C0FE0
S1130CF07D1F62957295707F7627607F7627828943
S1130D0093898E0D9F1D059600E010E020E130E0F0
S1130D1040E150E082959295907F9827807F9827B4
S1130D200E942603219602C0C0E0D0E0C430D10561
S1130D300CF4A1CF8FEFE81AF80A84E0E816F10466
S1130D409CF3DF91CF911F910F91FF90EF90089545
S1130D50AF92BF92CF92DF92EF92FF920F931F93C5
S1130D60CF93DF93E12CF12C72C0FE01EE0FFF1F35
S1130D70EC0FFD1F28E42E9DC0012F9D900D112422
S1130D80E80FF91FEB5EFD4F808181111AC0BE018F
S1130D906450710962957295707F7627607F76271B
S1130DA00AEB17EF20E130E040E150E0C70105967F
S1130DB082959295907F9827807F98270E94580368
S1130DC03BC05E0184E0A81AB108AA0CBB1CAA0CA3
S1130DD0BB1CAA0CBB1CAA0CBB1C670185E0C80E7B
S1130DE0D11CCC0CDD1CCC0CDD1CCC0CDD1CCC0CC7
S1130DF0DD1CFE01EE0FFF1FEC0FFD1F28E42E9DEE
S1130E00C0012F9D900D1124E80FF91FEB5EFD4FDB
S1130E100181128120E130E040E150E0B501C601DA
S1130E200E94580300E010E020E130E040E150E08F
S1130E30B501C6010E942603219602C0C4E0D0E099
S1130E40C831D1050CF491CF8FEFE81AF80A8AE083
S1130E50E816F1049CF3DF91CF911F910F91FF905D
S1130E60EF90DF90CF90BF90AF900895CF9320E0A4
S1130E7030E058C0A0910005B0910105FC01EE0FCF
S1130E80FF1FEE0FFF1FEA0FFB1FE20FF31F42814C
S1130E904130F1F552966D917C915397620F731F17
S1130EA054964D915C915597480F591FFA01EE0FD6
S1130EB0FF1F4E0F5F1FC8E4C69FF001C79FF00DD0
S1130EC011244E0F5F1FFA01EB5EFD4F41E040839A
S1130ED052966D917C915397620F731F54964D9166
S1130EE05C915597480F591F0D90BC91A02DFA01A4
S1130EF0EE0FFF1F4E0F5F1FC69FF001C79FF00D3F
S1130F0011244E0F5F1FFA01EB5EFD4FB283A183E4
S1130F10019602C080E090E0843091050CF4AACFE1
S1130F202F5F3F4F24303105ACF31092010510922E
S1130F300005CF9108951092850010928400E1E895
S1130F40F0E0808185608083808188608083609107
S1130F50040170910501072E000C880B990B0E9467
S1130F60FD0E20E030E04AE754E40E945A0E2DEBD7
S1130F7037E346E059E30E945A0E0E94CC0E709368
S1130F8089006093880082E080936F0078940895CC
S1130F9080E480937C0086E880937A000895EAE7F1
S1130FA0F0E080818064808380917A0086FDFCCFAC
S1130FB0809178009091790008950F931F93CF93B7
S1130FC0DF93C0E0D0E000E010E016C00E94CF073D
S1130FD09C012F703327CE016CE070E00E94890FD2
S1130FE002C0220F331F8A95E2F70227132783E0FA
S1130FF08A95F1F700002196C031D1053CF3C80170
S1131000DF91CF911F910F91089560E070E01EC0B1
S1131010F901EE0FFF1FE20FF31F48E4469FC001E2
S1131020479F900D1124E80FF91FEB5EFD4F1082CE
S11310308FEF9FEF928381832F5F3F4F02C020E0A9
S113104030E02831310524F36F5F7F4F6A3071053A
S1131050B4F30895CF93DF93CDB7DEB760970FB69F
S1131060F894DEBF0FBECDBF40E050E025C0E3E002
S1131070F0E0E21BF30BEE0FFF1FEE0FFF1FE80F74
S1131080F91FE40FF51F6281FA01EE0FFF1FEE0F47
S1131090FF1FA1E0B0E0AC0FBD1FEA0FFB1FE20F82
S11310A0F31F60832F5F3F4F02C020E030E0243005
S11310B03105ECF24F5F5F4F44305105B4F320E14A
S11310C0FE013196DC01129601900D922A95E1F70A
S11310D060960FB6F894DEBF0FBECDBFDF91CF91FF
S11310E00895DF92EF92FF920F931F93CF93DF93B4
S11310F0009709F06AC0A0910005B09101055296CD
S1131100CD91DC915397BE016150710953967C9344
S11311106E93529720E030E052C0A901460F571F4A
S1131120552374F1FC01EE0FFF1FEE0FFF1FEA0FB2
S1131130FB1FE20FF31FE281E13011F55496ED91AC
S1131140FC915597E80FF91F8F01000F111FE00F55
S1131150F11F0F2EF8E4FF2EF02DF49E8001F59E72
S1131160100D1124E00FF11FEB5EFD4FE081E13023
S113117039F45396DC93CE93529781E090E0CCC13E
S1131180FC01EE0FFF1FEE0FFF1FEA0FFB1FE20F24
S1131190F31FE281E13049F455233CF45396DC9388
S11311A0CE93529781E090E0B7C1019602C080E0EF
S11311B090E0843091050CF4B0CF2F5F3F4F243082
S11311C03105ACF380E090E0A7C18130910509F0CE
S11311D06CC0A0910005B09101055296CD91DC91AF
S11311E05397BE016F5F7F4F53967C936E935297D4
S11311F020E030E054C0A901460F571F4A30510582
S113120074F5FC01EE0FFF1FEE0FFF1FEA0FFB1F2B
S1131210E20FF31FE281E13011F55496ED91FC9158
S11312205597E80FF91F8F01000F111FE00FF11FF1
S11312300F2EF8E4FF2EF02DF49E8001F59E100D84
S11312401124E00FF11FEB5EFD4FE081E13039F432
S11312505396DC93CE93529781E090E05DC1FC01FC
S1131260EE0FFF1FEE0FFF1FEA0FFB1FE20FF31F2E
S1131270E281E13051F44A3051053CF05396DC935D
S1131280CE93529781E090E047C1019602C080E07E
S113129090E0843091050CF4AECF2F5F3F4F2430A3
S11312A03105ACF380E090E037C18230910509F05C
S11312B06CC0A0910005B09101055496CD91DC91CC
S11312C05597BE016F5F7F4F55967C936E935497ED
S11312D040E050E054C09C01260F371F28313105EF
S11312E074F5FC01EE0FFF1FEE0FFF1FEA0FFB1F4B
S11312F0E40FF51FE281E13011F55296ED90FC9078
S11313005397E40EF51EF901EE0FFF1FE20FF31FD2
S11313100F2EF8E4DF2EF02DDE9C8001DF9C100DF3
S11313201124E00FF11FEB5EFD4FE081E13039F451
S11313305596DC93CE93549781E090E0EDC0FC0188
S1131340EE0FFF1FEE0FFF1FEA0FFB1FE40FF51F49
S1131350E281E13051F4283131053CF05596DC93BB
S1131360CE93549781E090E0D7C0019602C080E00C
S113137090E0843091050CF4AECF4F5F5F4F443062
S11313805105ACF380E090E0C7C0039709F0C2C0F8
S113139080910005909101050E942A0880E090E068
S11313A0B3C0A0910005B091010552962D913C91D6
S11313B05397280F391F3323BCF1FA01EE0FFF1F97
S11313C0EE0FFF1FEA0FFB1FE80FF91F6281613068
S11313D059F554966D917C915597640F751FFB01D7
S11313E0EE0FFF1F6E0F7F1FC8E4C29FF001C39F63
S11313F0F00D11246E0F7F1FFB01EB5EFD4F60812A
S1131400613091F4CD010E942A08809100059091E9
S113141001050E942A0880910005909101050E940F
S11314202A0881E090E078C0FA01EE0FFF1FEE0F6A
S1131430FF1FEA0FFB1FE80FF91F62816130A1F45F
S1131440332394F4CD010E942A08809100059091E1
S113145001050E942A0880910005909101050E94CF
S11314602A0881E090E058C02A30310564F56130E3
S113147051F55496ED91FC915597E40FF51FEF014A
S1131480CC0FDD1FEC0FFD1F78E4729FE001739F0A
S1131490D00D1124EC0FFD1FEB5EFD4F70817130F8
S11314A091F4CD010E942A088091000590910105D4
S11314B00E942A0880910005909101050E942A0843
S11314C081E090E029C06130A9F42A30310594F01C
S11314D0CD010E942A0880910005909101050E9487
S11314E02A0880910005909101050E942A0881E054
S11314F090E012C04F5F5F4F02C040E050E04430C4
S113150051050CF44ECF019684309105B4F380E07C
S113151090E002C080E090E0DF91CF911F910F91A5
S1131520FF90EF90DF900895209100053091010520
S1131530232B41F18130910579F01CF4892B39F08A
S113154008958230910569F00397A1F0089580E031
S113155090E00E947108089581E090E00E94710873
S1131560089582E090E00E947108019759F40E9466
S113157036070895109285001092840083E090E06D
S11315800E94710808951F920F920FB60F921124B2
S11315902F933F934F935F936F937F938F939F9377
S11315A0AF93BF93EF93FF9382E090E00E94940A7D
S11315B0FF91EF91BF91AF919F918F917F916F9127
S11315C05F914F913F912F910F900FBE0F901F90FD
S11315D01895CF92DF92EF921F93CF93DF9387E119
S11315E090E0C0E0D0E06AC0FC01EE0FFF1FE80FFE
S11315F0F91F68E4649F9001659F300D1124E20F88
S1131600F31FEB5EFD4F2081222359F04F5F5F4FA4
S113161002C040E050E04A30510534F321E030E0AC
S113162002C020E030E0232B09F447C02196BC011E
S11316302BC0DB011197FB01EE0FFF1FE60FF71F15
S113164018E4149F9001159F300D1124E20FF31F2D
S1131650EB5EFD4F6D01CC0CDD1CAC0DBD1D2A0FE6
S11316603B1FD901AB5EBD4FCD90DD90EC90C082A5
S1131670D182E2824F5F5F4F02C040E050E04A30C7
S11316805105BCF26150710916161706B4F320E037
S113169030E00FC048E4429FF001439FF00D112455
S11316A0EB5EFD4F10824AEB57EF528341832F5F6D
S11316B03F4F2A30310574F3019601978430910528
S11316C00CF0A7CFCE01DF91CF911F91EF90DF9067
S11316D0CF90089540E050E01CC0FA01EE0FFF1FC8
S11316E0E40FF51F68E4629FC001639F900D11240D
S11316F0E80FF91FEB5EFD4F8081811110C02F5F51
S11317003F4F02C020E030E02A30310534F34F5F10
S11317105F4F44305105B4F380E090E0089581E0D8
S113172090E00895CF93DF93CDB7DEB7A1970FB6BE
S1131730F894DEBF0FBECDBF00E010E009C0C801C1
S11317400E947105F801E45FFD4F80830F5F1F4F16
S113175005301105A4F322E041E060E0CE010196DA
S11317600E94DE010E9405080E9485048AEB97EF1F
S11317700E9475040FEF1FEF23E030E042E350E0D6
S113178064E170E086E791E00E943D0423E030E0EC
S113179040E550E06EE170E082E891E00E943D0493
S11317A023E030E04EE650E06CE370E08DE891E039
S11317B00E943D04CE0101960E941E02892BD1F3A2
S11317C007EF1BE820E431E040E550E060E070E022
S11317D080E090E00E9458030AEB17EF2FE331E01A
S11317E04FE450E060E070E080E090E00E94260367
S11317F00E949B070E94C8070E94DD070E941710E1
S11318000E9497050FEF1FEF21E030E04EE051E01A
S11318106CE070E085E991E00E943D0421E030E055
S113182048E151E067E170E08FE991E00E943D04F6
S113183021E030E042E251E064E270E086EA91E0C7
S11318400E943D0421E030E04CE251E068E170E0A8
S113185088EA91E00E943D040E946A0B892B09F0FA
S113186092C18BB18F778BB9CE0101960E9414027D
S11318707C01CE0101960E9419028C01CE010196D1
S11318800E941E02019721F483E090E00E94940AD2
S1131890003921E01207BCF4E0910005F091010544
S11318A0309761F0828993899093FF048093FE04BA
S11318B084899589909314028093130280E090E0C8
S11318C00E94940A19C009351240B4F0E091000551
S11318D0F0910105309761F0828993899093FF0418
S11318E08093FE0484899589909314028093130253
S11318F081E090E00E94940A90E9E91691E0F906EB
S1131900B4F4E0910005F0910105309761F082890B
S113191093899093FF048093FE048489958990931E
S113192014028093130282E090E00E94940AEBE791
S1131930F2E93197F1F700C000000FEF1FEF21E04B
S113194030E04AE050E060E170E08EEA91E00E940D
S11319503D047E01F4E0EF0EF11C89E0E7EBF1E0D9
S1131960D70101900D928A95E1F721E030E048E239
S113197050E06AE070E0C7010E943D0480910B02D0
S11319808F9380910A028F9384ED91E09F938F93BC
S1131990FF92EF920E94221021E030E042E350E0F7
S11319A06AE070E0C7010E943D0421E030E04CE3AE
S11319B050E062E070E080EC91E00E943D040F2E64
S11319C0FCE0CF2EF2E0DF2EF02DF60180811F9295
S11319D08F938DEC91E09F938F93FF92EF920E94EF
S11319E0221021E030E046E450E06AE070E0C701F4
S11319F00E943D04F60181811F928F9387ED91E04F
S1131A009F938F93FF92EF920E94221021E030E087
S1131A1040E550E06AE070E0C7010E943D04F60131
S1131A2082811F928F9381EE91E09F938F93FF9217
S1131A30EF920E94221021E030E04AE550E06AE093
S1131A4070E0C7010E943D04F60183811F928F93C9
S1131A508BEE91E09F938F93FF92EF920E9422105E
S1131A6021E030E044E650E06AE070E0C7010E9403
S1131A703D04F60184811F928F9385EF91E09F933B
S1131A808F93FF92EF920E9422100FB6F894DEBF5C
S1131A900FBECDBF21E030E04EE650E06AE070E0DA
S1131AA0C7010E943D040E94A8060E942B06809153
S1131AB0000590910105892B11F40E949E050E9456
S1131AC0E90A18161906B4F420910A0230910B029F
S1131AD0820F931F90930B0280930A028BB180684C
S1131AE08BB9E7EAF1E63197F1F700C000008BB15A
S1131AF08F778BB90E946A0B019709F0ADCE13C0A2
S1131B00FC01E45FFD4F208130E040910A025091D6
S1131B100B02241735072CF40F3FFFEF1F0709F4BE
S1131B208C01019604C080E090E00FEF1FEF853038
S1131B30910534F30F3F2FEF120791F41FC07C017E
S1131B40E1E0EE1AF108F701E45FFD4F2081DC01CA
S1131B50A45FBD4F2C9360810E948605C70102C01B
S1131B6084E090E00817190754F360910A02F80121
S1131B70E45FFD4F6083C8010E9486058FEF9FEFED
S1131B800E94750469CECE0101960E941E026C016A
S1131B900FEF1FEF23E030E042E350E068E270E033
S1131BA08FEF91E00E943D047E01F4E0EF0EF11C02
S1131BB089E0E7EBF1E0D70101900D928A95E1F716
S1131BC023E030E040E550E068E270E0C7010E94A5
S1131BD03D0480910B028F9380910A028F9384EDD0
S1131BE091E09F938F93FF92EF920E94221023E043
S1131BF030E04EE650E068E270E0C7010E943D0428
S1131C000F900F900F900F900F900F90CA94CD28C3
S1131C1009F04CC00E94050810920B0210920A02AF
S1131C208AEB97EF0E94750407EF1BE820E431E08C
S1131C3040E550E060E070E080E090E00E945803EE
S1131C4000E010E02FE331E04FE450E060E070E0AA
S1131C5080E090E00E9426030FEF1FEF21E030E0C8
S1131C604EE051E06CE070E085E991E00E943D04B3
S1131C7021E030E048E151E067E170E08FE991E074
S1131C800E943D0421E030E042E251E064E270E071
S1131C9086EA91E00E943D0421E030E04CE251E00C
S1131CA068E170E088EA91E00E943D048BB18068AD
S1131CB08BB9D2CD0E946E0E0C944F0F0E94480F28
S1131CC058F00E94410F40F029F45F3F29F00C9432
S1131CD0380F51110C94830F0C943E0F0E94600F27
S1131CE068F39923B1F3552391F3951B550BBB2747
S1131CF0AA2762177307840738F09F5F5F4F220F8C
S1131D00331F441FAA1FA9F335D00E2E3AF0E0E882
S1131D1032D091505040E695001CCAF72BD0FE2FCC
S1131D2029D0660F771F881FBB1F26173707480760
S1131D30AB07B0E809F0BB0B802DBF01FF27935818
S1131D405F4F3AF09E3F510578F00C94380F0C9495
S1131D50830F5F3FE4F3983ED4F3869577956795B8
S1131D60B795F7959F5FC9F7880F911D969587954D
S1131D7097F90895E1E0660F771F881FBB1F62176C
S1131D8073078407BA0720F0621B730B840BBA0B2A
S1131D90EE1F88F7E09508950E94680F88F09F571A
S1131DA098F0B92F9927B751B0F0E1F0660F771F7B
S1131DB0881F991F1AF0BA95C9F714C0B13091F071
S1131DC00E94820FB1E008950C94820F672F782F40
S1131DD08827B85F39F0B93FCCF386957795679536
S1131DE0B395D9F73EF490958095709561957F4FA2
S1131DF08F4F9F4F0895E89409C097FB3EF4909548
S1131E008095709561957F4F8F4F9F4F9923A9F0CF
S1131E10F92F96E9BB279395F6958795779567955E
S1131E20B795F111F8CFFAF4BB0F11F460FF1BC0A2
S1131E306F5F7F4F8F4F9F4F16C0882311F096E935
S1131E4011C0772321F09EE8872F762F05C06623E3
S1131E5071F096E8862F70E060E02AF09A95660F9C
S1131E60771F881FDAF7880F9695879597F9089555
S1131E7097F99F6780E870E060E008959FEF80EC39
S1131E80089500240A9416161706180609060895DC
S1131E9000240A9412161306140605060895092E42
S1131EA00394000C11F4882352F0BB0F40F4BF2BB1
S1131EB011F460FF04C06F5F7F4F8F4F9F4F0895F1
S1131EC057FD9058440F551F59F05F3F71F04795E7
S1131ED0880F97FB991F61F09F3F79F087950895CC
S1131EE0121613061406551FF2CF4695F1DF08C0EB
S1131EF0161617061806991FF1CF86957105610508
S1131F0008940895E894BB2766277727CB0197F9AF
S1131F10089597FB072E16F4009407D077FD09D097
S1131F200E94B20F07FC05D03EF4909581959F4F17
S1131F300895709561957F4F0895EE0FFF1F0590EA
S1131F40F491E02D0994A29FB001B39FC001A39F17
S1131F50700D811D1124911DB29F700D811D1124DE
S1131F60911D0895AA1BBB1B51E107C0AA1FBB1FEB
S1131F70A617B70710F0A61BB70B881F991F5A9511
S1131F80A9F780959095BC01CD0108958F929F92F9
S1131F90AF92BF92CF92DF92EF92FF92CF93DF93F3
S1131FA0EC01688179818A819B81611571058105C4
S1131FB0910521F464E279ED8BE597E02DE133EFAF
S1131FC041E050E00E94D51249015A019B01AC0145
S1131FD0A7EAB1E40E94F4126B017C01ACEEB4EF09
S1131FE0A50194010E940213DC01CB018C0D9D1DFF
S1131FF0AE1DBF1DB7FF03C00197A109B048888378
S11320009983AA83BB839F77DF91CF91FF90EF9051
S1132010DF90CF90BF90AF909F908F9008950E94D3
S1132020C60F089580E091E00E94C60F0895A0E0D5
S1132030B0E08093000190930101A0930201B0935A
S113204003010895AEE0B0E0E8E2F0E10C9415136A
S11320500D891E8986E08C831A8309838FEF9FE79D
S11320609E838D83AE01475E5F4F6F89788DCE016D
S113207001960E944410EF81F885E00FF11F108251
S11320802E96E4E00C943113ABE0B0E0EAE4F0E126
S11320900C9407136C017B018A01FC0117821682E0
S11320A0838181FFCCC1CE0101963C01F60193816D
S11320B0F70193FD859193FF81917F01882309F4B2
S11320C0BAC1853239F493FD859193FF81917F01E3
S11320D0853229F4B60190E00E943B12E7CF912C9F
S11320E0212C312CFFE1F315D8F08B3279F038F440
S11320F0803279F08332A1F4232D20611DC08D320A
S113210061F0803369F4232D216016C0832D826031
S1132110382EE32DE4603E2E2AC0F32DF8601DC056
S113212037FC2DC020ED280F2A3040F08E32B9F450
S113213036FC81C1232D2064322E19C036FE06C020
S11321408AE0989E200D1124922E11C0EAE02E9E62
S1132150200D1124222EF32DF0623F2E08C08C3660
S113216021F4832D8068382E02C0883641F4F701AB
S113217093FD859193FF81917F018111B3CF982FB6
S11321809F7D9554933028F40C5F1F4F9FE39983F0
S11321900DC0833631F0833771F0833509F059C0AF
S11321A021C0F801808189830E5F1F4F88248394A6
S11321B0912C530113C02801F2E04F0E511CF80179
S11321C0A080B18036FE03C0692D70E002C06FEFBD
S11321D07FEFC5010E9430124C018201F32DFF777D
S11321E03F2E16C0280122E0420E511CF801A080A7
S11321F0B18036FE03C0692D70E002C06FEF7FEF3F
S1132200C5010E9425124C01F32DF0683F2E820176
S113221033FC1BC0822D90E088169906B0F4B601F9
S113222080E290E00E943B122A94F4CFF50137FC3F
S1132230859137FE81915F01B60190E00E943B12C7
S113224021102A9421E0821A91088114910471F7D3
S1132250E8C0843611F0893641F5F80137FE07C02D
S113226060817181828193810C5F1F4F08C06081FE
S11322707181072E000C880B990B0E5F1F4FF32DF5
S1132280FF763F2E97FF09C09095809570956195D4
S11322907F4F8F4F9F4FF0683F2E2AE030E0A3011D
S11322A00E947712882E861845C0853731F4232D75
S11322B02F7EB22E2AE030E025C0932D997FB92ECF
S11322C08F36C1F018F4883579F0B5C0803719F02D
S11322D0883721F0B0C0E92FE061BE2EB4FE0DC0F6
S11322E0FB2DF460BF2E09C034FE0AC0292F2660DE
S11322F0B22E06C028E030E005C020E130E002C084
S113230020E132E0F801B7FE07C06081718182816B
S113231093810C5F1F4F06C06081718180E090E063
S11323200E5F1F4FA3010E947712882E8618FB2D83
S1132330FF773F2E36FE0DC0232D2E7FA22E89144B
S113234058F434FE0BC032FC09C0832D8E7EA82EB7
S113235005C0B82CA32C03C0B82C01C0B92CA4FE12
S11323600FC0FE01E80DF11D8081803321F49A2D08
S1132370997EA92E09C0A2FE06C0B394B39404C0EA
S11323808A2D867809F0B394A3FC11C0A0FE06C080
S1132390B21488F4280C922C9B180EC0B21460F46A
S11323A0B60180E290E00E943B12B394F7CFB214DE
S11323B018F42B1802C0982C212CA4FE10C0B601CE
S11323C080E390E00E943B12A2FE17C0A1FC03C070
S11323D088E790E002C088E590E0B6010CC08A2D41
S11323E0867859F0A1FE02C08BE201C080E2A7FC0E
S11323F08DE2B60190E00E943B12891438F4B601D4
S113240080E390E00E943B129A94F7CF8A94F30100
S1132410E80DF11D8081B60190E00E943B1281100D
S1132420F5CF222009F442CEB60180E290E00E946A
S11324303B122A94F6CFF6018681978102C08FEF72
S11324409FEF2B96E2E10C942313FC01059061505D
S113245070400110D8F7809590958E0F9F1F0895B6
S1132460FC016150704001900110D8F7809590955F
S11324708E0F9F1F08950F931F93CF93DF93FB013C
S1132480238121FD03C08FEF9FEF2CC022FF16C0D4
S113249046815781248135814217530744F4A08132
S11324A0B1819D012F5F3F4F318320838C9326811F
S11324B037812F5F3F4F3783268314C08B01EC0194
S11324C0FB010084F185E02D0995892BE1F6D80103
S11324D016968D919C911797019617969C938E93BF
S11324E01697CE01DF91CF911F910F910895FA01B4
S11324F0AA27283051F1203181F1E8946F936E7F3F
S11325006E5F7F4F8F4F9F4FAF4FB1E03ED0B4E02F
S11325103CD0670F781F891F9A1FA11D680F791F70
S11325208A1F911DA11D6A0F711D811D911DA11D81
S113253020D009F468943F912AE0269F1124301991
S1132540305D3193DEF6CF010895462F4770405D2C
S11325504193B3E00FD0C9F7F6CF462F4F70405DDB
S11325604A3318F0495D31FD4052419302D0A9F736
S1132570EACFB4E0A6959795879577956795BA9530
S1132580C9F700976105710508959B01AC010A2EF6
S113259006945795479537952795BA95C9F7620FCD
S11325A0731F841F951FA01D0895052E97FB1EF40D
S11325B000940E94EC1257FD07D00E943E1307FCC2
S11325C003D04EF40C94EC1250954095309521951F
S11325D03F4F4F4F5F4F089590958095709561954B
S11325E07F4F8F4F9F4F08950E94A30FA59F900D7B
S11325F0B49F900DA49F800D911D11240895B7FFE1
S11326000C94F4120E94F412821B930B08952F92DF
S11326103F924F925F926F927F928F929F92AF926E
S1132620BF92CF92DF92EF92FF920F931F93CF93BB
S1132630DF93CDB7DEB7CA1BDB0B0FB6F894DEBF52
S11326400FBECDBF09942A88398848885F846E8478
S11326507D848C849B84AA84B984C884DF80EE80C2
S1132660FD800C811B81AA81B981CE0FD11D0FB6CB
S1132670F894DEBF0FBECDBFED010895A1E21A2E7E
S1132680AA1BBB1BFD010DC0AA1FBB1FEE1FFF1F12
S1132690A217B307E407F50720F0A21BB30BE40B62
S11326A0F50B661F771F881F991F1A9469F76095A9
S11326B07095809590959B01AC01BD01CF01089563
S10726C0F894FFCFB8
S11326C401000000DC05000000000000000000011F
S11326D401010000010000000000000000000001EE
S11326E401000000010100000000000000000000DF
S11326F401010001010000000000000001000000CD
S113270401000001010000000000000000000000BE
S113271401010000010100000000000001000000AC
S1132724010000000101000001000000010000009C
S113273401000000010050524553494F4E412045C9
S11327444C00535449434B205041524100454D5091
S1132754455A415200486563686F20706F720041A6
S11327646E64726561007900446965676F004E6F39
S11327745465747269730050756E74616A653A00C5
S113278450756E74616A657320746F7000546F7051
S113279420313A20256400546F7020323A20256495
S11327A400546F7020333A20256400546F70203431
S11327B43A20256400546F7020353A202564005073
S10D27C445524449535445210000D6
S9030000FC
